{
  "contractName": "TAIToken",
  "abi": [
    {
      "constant": true,
      "inputs": [],
      "name": "name",
      "outputs": [
        {
          "name": "",
          "type": "string"
        }
      ],
      "payable": false,
      "stateMutability": "view",
      "type": "function",
      "signature": "0x06fdde03"
    },
    {
      "constant": true,
      "inputs": [],
      "name": "decimals",
      "outputs": [
        {
          "name": "",
          "type": "uint8"
        }
      ],
      "payable": false,
      "stateMutability": "view",
      "type": "function",
      "signature": "0x313ce567"
    },
    {
      "constant": true,
      "inputs": [],
      "name": "_totalSupply",
      "outputs": [
        {
          "name": "",
          "type": "uint256"
        }
      ],
      "payable": false,
      "stateMutability": "view",
      "type": "function",
      "signature": "0x3eaaf86b"
    },
    {
      "constant": true,
      "inputs": [],
      "name": "number_of_bidders",
      "outputs": [
        {
          "name": "",
          "type": "uint256"
        }
      ],
      "payable": false,
      "stateMutability": "view",
      "type": "function",
      "signature": "0x5d31015f"
    },
    {
      "constant": true,
      "inputs": [],
      "name": "bid_status",
      "outputs": [
        {
          "name": "",
          "type": "uint8"
        }
      ],
      "payable": false,
      "stateMutability": "view",
      "type": "function",
      "signature": "0x67117412"
    },
    {
      "constant": true,
      "inputs": [],
      "name": "symbol",
      "outputs": [
        {
          "name": "",
          "type": "string"
        }
      ],
      "payable": false,
      "stateMutability": "view",
      "type": "function",
      "signature": "0x95d89b41"
    },
    {
      "constant": true,
      "inputs": [
        {
          "name": "",
          "type": "uint256"
        }
      ],
      "name": "items",
      "outputs": [
        {
          "name": "name",
          "type": "string"
        },
        {
          "name": "owner",
          "type": "address"
        },
        {
          "name": "high_bid",
          "type": "uint256"
        },
        {
          "name": "high_bidder",
          "type": "address"
        },
        {
          "name": "high_bidder_id",
          "type": "uint256"
        },
        {
          "name": "bid_count",
          "type": "uint256"
        }
      ],
      "payable": false,
      "stateMutability": "view",
      "type": "function",
      "signature": "0xbfb231d2"
    },
    {
      "constant": true,
      "inputs": [],
      "name": "number_of_items",
      "outputs": [
        {
          "name": "",
          "type": "uint256"
        }
      ],
      "payable": false,
      "stateMutability": "view",
      "type": "function",
      "signature": "0xca342e17"
    },
    {
      "constant": true,
      "inputs": [
        {
          "name": "",
          "type": "uint256"
        }
      ],
      "name": "bidders",
      "outputs": [
        {
          "name": "bidder_id",
          "type": "uint256"
        },
        {
          "name": "bidder_address",
          "type": "address"
        },
        {
          "name": "wallet_amount",
          "type": "uint256"
        }
      ],
      "payable": false,
      "stateMutability": "view",
      "type": "function",
      "signature": "0xcff29dfd"
    },
    {
      "constant": true,
      "inputs": [],
      "name": "auctionOwner",
      "outputs": [
        {
          "name": "",
          "type": "address"
        }
      ],
      "payable": false,
      "stateMutability": "view",
      "type": "function",
      "signature": "0xd3924aaf"
    },
    {
      "inputs": [],
      "payable": false,
      "stateMutability": "nonpayable",
      "type": "constructor",
      "signature": "constructor"
    },
    {
      "anonymous": false,
      "inputs": [
        {
          "indexed": true,
          "name": "from",
          "type": "address"
        },
        {
          "indexed": true,
          "name": "to",
          "type": "address"
        },
        {
          "indexed": false,
          "name": "tokens",
          "type": "uint256"
        }
      ],
      "name": "Transfer",
      "type": "event",
      "signature": "0xddf252ad1be2c89b69c2b068fc378daa952ba7f163c4a11628f55a4df523b3ef"
    },
    {
      "anonymous": false,
      "inputs": [
        {
          "indexed": true,
          "name": "tokenOwner",
          "type": "address"
        },
        {
          "indexed": true,
          "name": "spender",
          "type": "address"
        },
        {
          "indexed": false,
          "name": "tokens",
          "type": "uint256"
        }
      ],
      "name": "Approval",
      "type": "event",
      "signature": "0x8c5be1e5ebec7d5bd14f71427d1e84f3dd0314c0f7b2291e5b200ac8c7c3b925"
    },
    {
      "constant": false,
      "inputs": [],
      "name": "bidder_register",
      "outputs": [],
      "payable": true,
      "stateMutability": "payable",
      "type": "function",
      "signature": "0x77163a6f"
    },
    {
      "constant": false,
      "inputs": [
        {
          "name": "item_name",
          "type": "string"
        }
      ],
      "name": "list_item",
      "outputs": [
        {
          "name": "",
          "type": "string"
        }
      ],
      "payable": true,
      "stateMutability": "payable",
      "type": "function",
      "signature": "0xebd0b8e0"
    },
    {
      "constant": true,
      "inputs": [],
      "name": "getAllItemNames",
      "outputs": [
        {
          "name": "",
          "type": "string"
        }
      ],
      "payable": false,
      "stateMutability": "view",
      "type": "function",
      "signature": "0xa9389348"
    },
    {
      "constant": true,
      "inputs": [
        {
          "name": "a",
          "type": "string"
        },
        {
          "name": "b",
          "type": "string"
        }
      ],
      "name": "compareStrings",
      "outputs": [
        {
          "name": "",
          "type": "bool"
        }
      ],
      "payable": false,
      "stateMutability": "pure",
      "type": "function",
      "signature": "0xbed34bba"
    },
    {
      "constant": false,
      "inputs": [
        {
          "name": "item_to_bid",
          "type": "string"
        },
        {
          "name": "amount",
          "type": "uint256"
        }
      ],
      "name": "make_bid",
      "outputs": [
        {
          "name": "",
          "type": "string"
        }
      ],
      "payable": false,
      "stateMutability": "nonpayable",
      "type": "function",
      "signature": "0x47df8f0e"
    },
    {
      "constant": false,
      "inputs": [],
      "name": "endBid",
      "outputs": [
        {
          "name": "",
          "type": "string"
        }
      ],
      "payable": false,
      "stateMutability": "nonpayable",
      "type": "function",
      "signature": "0x8bae720b"
    },
    {
      "constant": true,
      "inputs": [
        {
          "name": "required_item",
          "type": "string"
        }
      ],
      "name": "revealWinner",
      "outputs": [
        {
          "name": "",
          "type": "address"
        }
      ],
      "payable": false,
      "stateMutability": "view",
      "type": "function",
      "signature": "0x4fcf1f39"
    },
    {
      "constant": true,
      "inputs": [
        {
          "name": "tokenOwner",
          "type": "address"
        }
      ],
      "name": "viewBalance",
      "outputs": [
        {
          "name": "balance",
          "type": "uint256"
        }
      ],
      "payable": false,
      "stateMutability": "view",
      "type": "function",
      "signature": "0xc1a13d1a"
    },
    {
      "constant": false,
      "inputs": [],
      "name": "totalSupply",
      "outputs": [
        {
          "name": "",
          "type": "uint256"
        }
      ],
      "payable": false,
      "stateMutability": "nonpayable",
      "type": "function",
      "signature": "0x18160ddd"
    },
    {
      "constant": false,
      "inputs": [
        {
          "name": "tokenOwner",
          "type": "address"
        }
      ],
      "name": "balanceOf",
      "outputs": [
        {
          "name": "balance",
          "type": "uint256"
        }
      ],
      "payable": false,
      "stateMutability": "nonpayable",
      "type": "function",
      "signature": "0x70a08231"
    },
    {
      "constant": false,
      "inputs": [
        {
          "name": "to",
          "type": "address"
        },
        {
          "name": "tokens",
          "type": "uint256"
        }
      ],
      "name": "transfer",
      "outputs": [
        {
          "name": "success",
          "type": "bool"
        }
      ],
      "payable": false,
      "stateMutability": "nonpayable",
      "type": "function",
      "signature": "0xa9059cbb"
    },
    {
      "constant": false,
      "inputs": [
        {
          "name": "spender",
          "type": "address"
        },
        {
          "name": "tokens",
          "type": "uint256"
        }
      ],
      "name": "approve",
      "outputs": [
        {
          "name": "success",
          "type": "bool"
        }
      ],
      "payable": false,
      "stateMutability": "nonpayable",
      "type": "function",
      "signature": "0x095ea7b3"
    },
    {
      "constant": false,
      "inputs": [
        {
          "name": "from",
          "type": "address"
        },
        {
          "name": "to",
          "type": "address"
        },
        {
          "name": "tokens",
          "type": "uint256"
        }
      ],
      "name": "transferFrom",
      "outputs": [
        {
          "name": "success",
          "type": "bool"
        }
      ],
      "payable": false,
      "stateMutability": "nonpayable",
      "type": "function",
      "signature": "0x23b872dd"
    },
    {
      "constant": false,
      "inputs": [
        {
          "name": "tokenOwner",
          "type": "address"
        },
        {
          "name": "spender",
          "type": "address"
        }
      ],
      "name": "allowance",
      "outputs": [
        {
          "name": "remaining",
          "type": "uint256"
        }
      ],
      "payable": false,
      "stateMutability": "nonpayable",
      "type": "function",
      "signature": "0xdd62ed3e"
    },
    {
      "constant": false,
      "inputs": [
        {
          "name": "spender",
          "type": "address"
        },
        {
          "name": "tokens",
          "type": "uint256"
        },
        {
          "name": "data",
          "type": "bytes"
        }
      ],
      "name": "approveAndCall",
      "outputs": [
        {
          "name": "success",
          "type": "bool"
        }
      ],
      "payable": false,
      "stateMutability": "nonpayable",
      "type": "function",
      "signature": "0xcae9ca51"
    }
  ],
  "bytecode": "0x60806040523480156200001157600080fd5b506040805190810160405280600381526020017f5441490000000000000000000000000000000000000000000000000000000000815250600090805190602001906200005f92919062000243565b506040805190810160405280601681526020017f5472757374416e64496e7465677269747920436f696e0000000000000000000081525060019080519060200190620000ad92919062000243565b5060028060006101000a81548160ff021916908360ff160217905550620186a060038190555060006004819055506000600581905550600061038b60006101000a81548160ff021916908360018111156200010457fe5b021790555033600660006101000a81548173ffffffffffffffffffffffffffffffffffffffff021916908373ffffffffffffffffffffffffffffffffffffffff16021790555060035461038c6000600660009054906101000a900473ffffffffffffffffffffffffffffffffffffffff1673ffffffffffffffffffffffffffffffffffffffff1673ffffffffffffffffffffffffffffffffffffffff16815260200190815260200160002081905550600660009054906101000a900473ffffffffffffffffffffffffffffffffffffffff1673ffffffffffffffffffffffffffffffffffffffff16600073ffffffffffffffffffffffffffffffffffffffff167fddf252ad1be2c89b69c2b068fc378daa952ba7f163c4a11628f55a4df523b3ef6003546040518082815260200191505060405180910390a3620002f2565b828054600181600116156101000203166002900490600052602060002090601f016020900481019282601f106200028657805160ff1916838001178555620002b7565b82800160010185558215620002b7579182015b82811115620002b657825182559160200191906001019062000299565b5b509050620002c69190620002ca565b5090565b620002ef91905b80821115620002eb576000816000905550600101620002d1565b5090565b90565b6127db80620003026000396000f300608060405260043610610149576000357c0100000000000000000000000000000000000000000000000000000000900463ffffffff16806306fdde031461014e578063095ea7b3146101de57806318160ddd1461024357806323b872dd1461026e578063313ce567146102f35780633eaaf86b1461032457806347df8f0e1461034f5780634fcf1f391461043b5780635d31015f146104e4578063671174121461050f57806370a082311461054857806377163a6f1461059f5780638bae720b146105a957806395d89b4114610639578063a9059cbb146106c9578063a93893481461072e578063bed34bba146107be578063bfb231d214610885578063c1a13d1a146109a6578063ca342e17146109fd578063cae9ca5114610a28578063cff29dfd14610ad3578063d3924aaf14610b4e578063dd62ed3e14610ba5578063ebd0b8e014610c1c575b600080fd5b34801561015a57600080fd5b50610163610cf1565b6040518080602001828103825283818151815260200191508051906020019080838360005b838110156101a3578082015181840152602081019050610188565b50505050905090810190601f1680156101d05780820380516001836020036101000a031916815260200191505b509250505060405180910390f35b3480156101ea57600080fd5b50610229600480360381019080803573ffffffffffffffffffffffffffffffffffffffff16906020019092919080359060200190929190505050610d8f565b604051808215151515815260200191505060405180910390f35b34801561024f57600080fd5b50610258610e82565b6040518082815260200191505060405180910390f35b34801561027a57600080fd5b506102d9600480360381019080803573ffffffffffffffffffffffffffffffffffffffff169060200190929190803573ffffffffffffffffffffffffffffffffffffffff16906020019092919080359060200190929190505050610ece565b604051808215151515815260200191505060405180910390f35b3480156102ff57600080fd5b5061030861114f565b604051808260ff1660ff16815260200191505060405180910390f35b34801561033057600080fd5b50610339611162565b6040518082815260200191505060405180910390f35b34801561035b57600080fd5b506103c0600480360381019080803590602001908201803590602001908080601f016020809104026020016040519081016040528093929190818152602001838380828437820191505050505050919291929080359060200190929190505050611168565b6040518080602001828103825283818151815260200191508051906020019080838360005b838110156104005780820151818401526020810190506103e5565b50505050905090810190601f16801561042d5780820380516001836020036101000a031916815260200191505b509250505060405180910390f35b34801561044757600080fd5b506104a2600480360381019080803590602001908201803590602001908080601f0160208091040260200160405190810160405280939291908181526020018383808284378201915050505050509192919290505050611623565b604051808273ffffffffffffffffffffffffffffffffffffffff1673ffffffffffffffffffffffffffffffffffffffff16815260200191505060405180910390f35b3480156104f057600080fd5b506104f9611806565b6040518082815260200191505060405180910390f35b34801561051b57600080fd5b5061052461180c565b6040518082600181111561053457fe5b60ff16815260200191505060405180910390f35b34801561055457600080fd5b50610589600480360381019080803573ffffffffffffffffffffffffffffffffffffffff169060200190929190505050611820565b6040518082815260200191505060405180910390f35b6105a761186a565b005b3480156105b557600080fd5b506105be611933565b6040518080602001828103825283818151815260200191508051906020019080838360005b838110156105fe5780820151818401526020810190506105e3565b50505050905090810190601f16801561062b5780820380516001836020036101000a031916815260200191505b509250505060405180910390f35b34801561064557600080fd5b5061064e611ad2565b6040518080602001828103825283818151815260200191508051906020019080838360005b8381101561068e578082015181840152602081019050610673565b50505050905090810190601f1680156106bb5780820380516001836020036101000a031916815260200191505b509250505060405180910390f35b3480156106d557600080fd5b50610714600480360381019080803573ffffffffffffffffffffffffffffffffffffffff16906020019092919080359060200190929190505050611b70565b604051808215151515815260200191505060405180910390f35b34801561073a57600080fd5b50610743611cef565b6040518080602001828103825283818151815260200191508051906020019080838360005b83811015610783578082015181840152602081019050610768565b50505050905090810190601f1680156107b05780820380516001836020036101000a031916815260200191505b509250505060405180910390f35b3480156107ca57600080fd5b5061086b600480360381019080803590602001908201803590602001908080601f0160208091040260200160405190810160405280939291908181526020018383808284378201915050505050509192919290803590602001908201803590602001908080601f0160208091040260200160405190810160405280939291908181526020018383808284378201915050505050509192919290505050611e13565b604051808215151515815260200191505060405180910390f35b34801561089157600080fd5b506108b060048036038101908080359060200190929190505050611fc4565b60405180806020018773ffffffffffffffffffffffffffffffffffffffff1673ffffffffffffffffffffffffffffffffffffffff1681526020018681526020018573ffffffffffffffffffffffffffffffffffffffff1673ffffffffffffffffffffffffffffffffffffffff168152602001848152602001838152602001828103825288818151815260200191508051906020019080838360005b8381101561096657808201518184015260208101905061094b565b50505050905090810190601f1680156109935780820380516001836020036101000a031916815260200191505b5097505050505050505060405180910390f35b3480156109b257600080fd5b506109e7600480360381019080803573ffffffffffffffffffffffffffffffffffffffff1690602001909291905050506120dd565b6040518082815260200191505060405180910390f35b348015610a0957600080fd5b50610a12612127565b6040518082815260200191505060405180910390f35b348015610a3457600080fd5b50610ab9600480360381019080803573ffffffffffffffffffffffffffffffffffffffff16906020019092919080359060200190929190803590602001908201803590602001908080601f016020809104026020016040519081016040528093929190818152602001838380828437820191505050505050919291929050505061212d565b604051808215151515815260200191505060405180910390f35b348015610adf57600080fd5b50610afe6004803603810190808035906020019092919050505061237d565b604051808481526020018373ffffffffffffffffffffffffffffffffffffffff1673ffffffffffffffffffffffffffffffffffffffff168152602001828152602001935050505060405180910390f35b348015610b5a57600080fd5b50610b636123cd565b604051808273ffffffffffffffffffffffffffffffffffffffff1673ffffffffffffffffffffffffffffffffffffffff16815260200191505060405180910390f35b348015610bb157600080fd5b50610c06600480360381019080803573ffffffffffffffffffffffffffffffffffffffff169060200190929190803573ffffffffffffffffffffffffffffffffffffffff1690602001909291905050506123f3565b6040518082815260200191505060405180910390f35b610c76600480360381019080803590602001908201803590602001908080601f016020809104026020016040519081016040528093929190818152602001838380828437820191505050505050919291929050505061247b565b6040518080602001828103825283818151815260200191508051906020019080838360005b83811015610cb6578082015181840152602081019050610c9b565b50505050905090810190601f168015610ce35780820380516001836020036101000a031916815260200191505b509250505060405180910390f35b60018054600181600116156101000203166002900480601f016020809104026020016040519081016040528092919081815260200182805460018160011615610100020316600290048015610d875780601f10610d5c57610100808354040283529160200191610d87565b820191906000526020600020905b815481529060010190602001808311610d6a57829003601f168201915b505050505081565b60008161038d60003373ffffffffffffffffffffffffffffffffffffffff1673ffffffffffffffffffffffffffffffffffffffff16815260200190815260200160002060008573ffffffffffffffffffffffffffffffffffffffff1673ffffffffffffffffffffffffffffffffffffffff168152602001908152602001600020819055508273ffffffffffffffffffffffffffffffffffffffff163373ffffffffffffffffffffffffffffffffffffffff167f8c5be1e5ebec7d5bd14f71427d1e84f3dd0314c0f7b2291e5b200ac8c7c3b925846040518082815260200191505060405180910390a36001905092915050565b600061038c60008073ffffffffffffffffffffffffffffffffffffffff1673ffffffffffffffffffffffffffffffffffffffff1681526020019081526020016000205460035403905090565b60008161038c60008673ffffffffffffffffffffffffffffffffffffffff1673ffffffffffffffffffffffffffffffffffffffff168152602001908152602001600020540361038c60008673ffffffffffffffffffffffffffffffffffffffff1673ffffffffffffffffffffffffffffffffffffffff168152602001908152602001600020819055508161038d60008673ffffffffffffffffffffffffffffffffffffffff1673ffffffffffffffffffffffffffffffffffffffff16815260200190815260200160002060003373ffffffffffffffffffffffffffffffffffffffff1673ffffffffffffffffffffffffffffffffffffffff168152602001908152602001600020540361038d60008673ffffffffffffffffffffffffffffffffffffffff1673ffffffffffffffffffffffffffffffffffffffff16815260200190815260200160002060003373ffffffffffffffffffffffffffffffffffffffff1673ffffffffffffffffffffffffffffffffffffffff168152602001908152602001600020819055508161038c60008573ffffffffffffffffffffffffffffffffffffffff1673ffffffffffffffffffffffffffffffffffffffff168152602001908152602001600020540161038c60008573ffffffffffffffffffffffffffffffffffffffff1673ffffffffffffffffffffffffffffffffffffffff168152602001908152602001600020819055508273ffffffffffffffffffffffffffffffffffffffff168473ffffffffffffffffffffffffffffffffffffffff167fddf252ad1be2c89b69c2b068fc378daa952ba7f163c4a11628f55a4df523b3ef846040518082815260200191505060405180910390a3600190509392505050565b600260009054906101000a900460ff1681565b60035481565b6060600080600080600181111561117b57fe5b61038b60009054906101000a900460ff16600181111561119757fe5b1415156111a357600080fd5b600192505b600554831115156115e1573373ffffffffffffffffffffffffffffffffffffffff1661025f846064811015156111da57fe5b6003020160010160009054906101000a900473ffffffffffffffffffffffffffffffffffffffff1673ffffffffffffffffffffffffffffffffffffffff1614156115d45761025f8360648110151561122e57fe5b60030201600001549150600090505b600454811015611597576112ff60078260648110151561125957fe5b600602016000018054600181600116156101000203166002900480601f0160208091040260200160405190810160405280929190818152602001828054600181600116156101000203166002900480156112f45780601f106112c9576101008083540402835291602001916112f4565b820191906000526020600020905b8154815290600101906020018083116112d757829003601f168201915b505050505087611e13565b1561158a578461130e33611820565b1015156115265760078160648110151561132457fe5b60060201600201548511156114e957600060078260648110151561134457fe5b60060201600501541415156113ce576113cc600660009054906101000a900473ffffffffffffffffffffffffffffffffffffffff1660078360648110151561138857fe5b6006020160030160009054906101000a900473ffffffffffffffffffffffffffffffffffffffff166007846064811015156113bf57fe5b6006020160020154610ece565b505b336007826064811015156113de57fe5b6006020160030160006101000a81548173ffffffffffffffffffffffffffffffffffffffff021916908373ffffffffffffffffffffffffffffffffffffffff1602179055508460078260648110151561143357fe5b60060201600201819055508160078260648110151561144e57fe5b600602016004018190555061148633600660009054906101000a900473ffffffffffffffffffffffffffffffffffffffff1687610ece565b50600160078260648110151561149857fe5b60060201600501600082825401925050819055506040805190810160405280600c81526020017f6269642061636365707465640000000000000000000000000000000000000000815250935061161a565b6040805190810160405280601e81526020017f426964206973206c6f776572207468616e2070726573656e74206269642e0000815250935061161a565b606060405190810160405280602e81526020017f496e76616c69642062696421204e6f7420656e6f7567682062616c616e63652081526020017f746f206d616b652061206269642e000000000000000000000000000000000000815250935061161a565b808060010191505061123d565b6040805190810160405280601a81526020017f43686f73656e206974656d206973206e6f74206c69737465642e000000000000815250935061161a565b82806001019350506111a8565b6040805190810160405280601581526020017f626964646572206e6f742072656769737465726564000000000000000000000081525093505b50505092915050565b600080600660009054906101000a900473ffffffffffffffffffffffffffffffffffffffff1673ffffffffffffffffffffffffffffffffffffffff163373ffffffffffffffffffffffffffffffffffffffff1614151561168257600080fd5b60018081111561168e57fe5b61038b60009054906101000a900460ff1660018111156116aa57fe5b1415156116b657600080fd5b600090505b6004548110156117ff57826040518082805190602001908083835b6020831015156116fb57805182526020820191506020810190506020830392506116d6565b6001836020036101000a03801982511681845116808217855250505050505090500191505060405180910390206000191660078260648110151561173b57fe5b60060201600001604051808280546001816001161561010002031660029004801561179d5780601f1061177b57610100808354040283529182019161179d565b820191906000526020600020905b815481529060010190602001808311611789575b505091505060405180910390206000191614156117f2576007816064811015156117c357fe5b6006020160030160009054906101000a900473ffffffffffffffffffffffffffffffffffffffff169150611800565b80806001019150506116bb565b5b50919050565b60055481565b61038b60009054906101000a900460ff1681565b600061038c60008373ffffffffffffffffffffffffffffffffffffffff1673ffffffffffffffffffffffffffffffffffffffff168152602001908152602001600020549050919050565b60003411151561187957600080fd5b600160056000828254019250508190555060055461025f60055460648110151561189f57fe5b60030201600001819055503361025f6005546064811015156118bd57fe5b6003020160010160006101000a81548173ffffffffffffffffffffffffffffffffffffffff021916908373ffffffffffffffffffffffffffffffffffffffff160217905550611930600660009054906101000a900473ffffffffffffffffffffffffffffffffffffffff16336064610ece565b50565b60606000600660009054906101000a900473ffffffffffffffffffffffffffffffffffffffff1673ffffffffffffffffffffffffffffffffffffffff163373ffffffffffffffffffffffffffffffffffffffff1614151561199357600080fd5b600161038b60006101000a81548160ff021916908360018111156119b357fe5b0217905550600090505b600454811015611a6f5760006007826064811015156119d857fe5b6006020160050154141515611a6257611a60600660009054906101000a900473ffffffffffffffffffffffffffffffffffffffff16600783606481101515611a1c57fe5b6006020160010160009054906101000a900473ffffffffffffffffffffffffffffffffffffffff16600784606481101515611a5357fe5b6006020160020154610ece565b505b80806001019150506119bd565b606060405190810160405280602981526020017f41756374696f6e20656e6465642c20676f20616865616420616e64207265766581526020017f616c2077696e6e6572000000000000000000000000000000000000000000000081525091505090565b60008054600181600116156101000203166002900480601f016020809104026020016040519081016040528092919081815260200182805460018160011615610100020316600290048015611b685780601f10611b3d57610100808354040283529160200191611b68565b820191906000526020600020905b815481529060010190602001808311611b4b57829003601f168201915b505050505081565b60008161038c60003373ffffffffffffffffffffffffffffffffffffffff1673ffffffffffffffffffffffffffffffffffffffff168152602001908152602001600020540361038c60003373ffffffffffffffffffffffffffffffffffffffff1673ffffffffffffffffffffffffffffffffffffffff168152602001908152602001600020819055508161038c60008573ffffffffffffffffffffffffffffffffffffffff1673ffffffffffffffffffffffffffffffffffffffff168152602001908152602001600020540161038c60008573ffffffffffffffffffffffffffffffffffffffff1673ffffffffffffffffffffffffffffffffffffffff168152602001908152602001600020819055508273ffffffffffffffffffffffffffffffffffffffff163373ffffffffffffffffffffffffffffffffffffffff167fddf252ad1be2c89b69c2b068fc378daa952ba7f163c4a11628f55a4df523b3ef846040518082815260200191505060405180910390a36001905092915050565b606060006060600091505b6064821015611e0b57611dbb81600784606481101515611d1657fe5b600602016000018054600181600116156101000203166002900480601f016020809104026020016040519081016040528092919081815260200182805460018160011615610100020316600290048015611db15780601f10611d8657610100808354040283529160200191611db1565b820191906000526020600020905b815481529060010190602001808311611d9457829003601f168201915b505050505061263e565b9050611dfc816040805190810160405280600181526020017f2c0000000000000000000000000000000000000000000000000000000000000081525061263e565b90508180600101925050611cfa565b809250505090565b6000816040516020018082805190602001908083835b602083101515611e4e5780518252602082019150602081019050602083039250611e29565b6001836020036101000a0380198251168184511680821785525050505050509050019150506040516020818303038152906040526040518082805190602001908083835b602083101515611eb75780518252602082019150602081019050602083039250611e92565b6001836020036101000a038019825116818451168082178552505050505050905001915050604051809103902060001916836040516020018082805190602001908083835b602083101515611f215780518252602082019150602081019050602083039250611efc565b6001836020036101000a0380198251168184511680821785525050505050509050019150506040516020818303038152906040526040518082805190602001908083835b602083101515611f8a5780518252602082019150602081019050602083039250611f65565b6001836020036101000a03801982511681845116808217855250505050505090500191505060405180910390206000191614905092915050565b600781606481101515611fd357fe5b60060201600091509050806000018054600181600116156101000203166002900480601f0160208091040260200160405190810160405280929190818152602001828054600181600116156101000203166002900480156120755780601f1061204a57610100808354040283529160200191612075565b820191906000526020600020905b81548152906001019060200180831161205857829003601f168201915b5050505050908060010160009054906101000a900473ffffffffffffffffffffffffffffffffffffffff16908060020154908060030160009054906101000a900473ffffffffffffffffffffffffffffffffffffffff16908060040154908060050154905086565b600061038c60008373ffffffffffffffffffffffffffffffffffffffff1673ffffffffffffffffffffffffffffffffffffffff168152602001908152602001600020549050919050565b60045481565b60008261038d60003373ffffffffffffffffffffffffffffffffffffffff1673ffffffffffffffffffffffffffffffffffffffff16815260200190815260200160002060008673ffffffffffffffffffffffffffffffffffffffff1673ffffffffffffffffffffffffffffffffffffffff168152602001908152602001600020819055508373ffffffffffffffffffffffffffffffffffffffff163373ffffffffffffffffffffffffffffffffffffffff167f8c5be1e5ebec7d5bd14f71427d1e84f3dd0314c0f7b2291e5b200ac8c7c3b925856040518082815260200191505060405180910390a38373ffffffffffffffffffffffffffffffffffffffff16638f4ffcb1338530866040518563ffffffff167c0100000000000000000000000000000000000000000000000000000000028152600401808573ffffffffffffffffffffffffffffffffffffffff1673ffffffffffffffffffffffffffffffffffffffff1681526020018481526020018373ffffffffffffffffffffffffffffffffffffffff1673ffffffffffffffffffffffffffffffffffffffff16815260200180602001828103825283818151815260200191508051906020019080838360005b8381101561230b5780820151818401526020810190506122f0565b50505050905090810190601f1680156123385780820380516001836020036101000a031916815260200191505b5095505050505050600060405180830381600087803b15801561235a57600080fd5b505af115801561236e573d6000803e3d6000fd5b50505050600190509392505050565b61025f8160648110151561238d57fe5b600302016000915090508060000154908060010160009054906101000a900473ffffffffffffffffffffffffffffffffffffffff16908060020154905083565b600660009054906101000a900473ffffffffffffffffffffffffffffffffffffffff1681565b600061038d60008473ffffffffffffffffffffffffffffffffffffffff1673ffffffffffffffffffffffffffffffffffffffff16815260200190815260200160002060008373ffffffffffffffffffffffffffffffffffffffff1673ffffffffffffffffffffffffffffffffffffffff16815260200190815260200160002054905092915050565b60606000600181111561248a57fe5b61038b60009054906101000a900460ff1660018111156124a657fe5b1415156124b257600080fd5b8160076004546064811015156124c457fe5b6006020160000190805190602001906124de92919061270a565b503360076004546064811015156124f157fe5b6006020160010160006101000a81548173ffffffffffffffffffffffffffffffffffffffff021916908373ffffffffffffffffffffffffffffffffffffffff1602179055506000600760045460648110151561254957fe5b60060201600201819055506000600760045460648110151561256757fe5b60060201600501819055506001600460008282540192505081905550600760016004540360648110151561259757fe5b600602016000018054600181600116156101000203166002900480601f0160208091040260200160405190810160405280929190818152602001828054600181600116156101000203166002900480156126325780601f1061260757610100808354040283529160200191612632565b820191906000526020600020905b81548152906001019060200180831161261557829003601f168201915b50505050509050919050565b606082826040516020018083805190602001908083835b60208310151561267a5780518252602082019150602081019050602083039250612655565b6001836020036101000a03801982511681845116808217855250505050505090500182805190602001908083835b6020831015156126cd57805182526020820191506020810190506020830392506126a8565b6001836020036101000a03801982511681845116808217855250505050505090500192505050604051602081830303815290604052905092915050565b828054600181600116156101000203166002900490600052602060002090601f016020900481019282601f1061274b57805160ff1916838001178555612779565b82800160010185558215612779579182015b8281111561277857825182559160200191906001019061275d565b5b509050612786919061278a565b5090565b6127ac91905b808211156127a8576000816000905550600101612790565b5090565b905600a165627a7a72305820703e2c49f60e58f06d0ecdfe086d73e1fb3cf46ce9574ea12f432815b4abf2520029",
  "source": "pragma solidity ^0.4.24;\r\n\r\n//ERC Token Standard #20 Interface\r\n \r\ncontract ERC20Interface {\r\n    function totalSupply() public  returns (uint);\r\n    function balanceOf(address tokenOwner) public  returns (uint balance);\r\n    function allowance(address tokenOwner, address spender) public  returns (uint remaining);\r\n    function transfer(address to, uint tokens) public returns (bool success);\r\n    function approve(address spender, uint tokens) public returns (bool success);\r\n    function transferFrom(address from, address to, uint tokens) public returns (bool success);\r\n \r\n    event Transfer(address indexed from, address indexed to, uint tokens);\r\n    event Approval(address indexed tokenOwner, address indexed spender, uint tokens);\r\n}\r\n \r\n \r\n//Contract function to receive approval and execute function in one call\r\n \r\ncontract ApproveAndCallFallBack {\r\n    function receiveApproval(address from, uint256 tokens, address token, bytes data) public;\r\n}\r\n \r\n//Actual token contract\r\n \r\ncontract TAIToken is ERC20Interface {\r\n    string public symbol;\r\n    string public  name;\r\n    uint8 public decimals;\r\n    uint public _totalSupply;\r\n    uint public number_of_items;\r\n    uint public number_of_bidders;\r\n    address public auctionOwner;\r\n    struct item\r\n    {\r\n        string  name;\r\n        address owner;\r\n        uint high_bid;\r\n        address high_bidder;\r\n        uint high_bidder_id;\r\n        uint bid_count;\r\n    }\r\n    \r\n    // structure that stores bidder information\r\n    struct bidder\r\n    {\r\n        uint bidder_id;\r\n        address bidder_address;\r\n        uint wallet_amount;\r\n    }\r\n    \r\n    item [100] public items;\r\n    bidder [100] public bidders;\r\n    \r\n    enum status {running,ended}\r\n    status public bid_status;\r\n \r\n    mapping(address => uint) balances;\r\n    mapping(address => mapping(address => uint)) allowed;\r\n \r\n   \r\n    //modifier to ensure if the message sender is auctionOwner or not\r\n    modifier isOwner(){\r\n        require(msg.sender==auctionOwner);\r\n        _;\r\n    }\r\n    \r\n    //modifier to check if bidding process has ended\r\n    modifier hasBidEnded()\r\n    {\r\n        require(bid_status==status.ended);\r\n        _;\r\n    }\r\n    \r\n    \r\n     constructor() public {\r\n        symbol = \"TAI\";\r\n        name = \"TrustAndIntegrity Coin\";\r\n        decimals = 2;\r\n        _totalSupply = 100000;\r\n        number_of_items=0;\r\n        number_of_bidders=0;\r\n        bid_status=status.running;\r\n        auctionOwner=msg.sender;\r\n        balances[auctionOwner] = _totalSupply;\r\n        emit Transfer(address(0), auctionOwner, _totalSupply);\r\n    }\r\n    \r\n    \r\n    //The user needs to register in order to become a bidder and he needs to register with atleast 1 token\r\n    function bidder_register() public payable {\r\n        require(msg.value>0);\r\n        number_of_bidders+=1;\r\n        bidders[number_of_bidders].bidder_id=number_of_bidders;\r\n        bidders[number_of_bidders].bidder_address=msg.sender;\r\n        transferFrom(auctionOwner,msg.sender,100);\r\n        \r\n    }\r\n    \r\n    \r\n    // Items are listed and the details of the items are stored in the struct item\r\n    function list_item(string item_name) public payable returns (string){\r\n        require(bid_status==status.running);\r\n        items[number_of_items].name=item_name;\r\n        items[number_of_items].owner=msg.sender;\r\n        items[number_of_items].high_bid=0;\r\n        items[number_of_items].bid_count=0;\r\n        number_of_items+=1;\r\n        return items[number_of_items-1].name;\r\n    }\r\n\r\n    function append(string a, string b) internal pure returns (string) {\r\n\r\n        return string(abi.encodePacked(a, b));\r\n    }\r\n    \r\n    function getAllItemNames() public view returns(string memory) {\r\n        uint i;\r\n        string memory itemNames;\r\n        for(i=0; i<items.length; i++) {\r\n            itemNames = append(itemNames, items[i].name);\r\n            itemNames = append(itemNames, \",\");\r\n        }\r\n        return itemNames;\r\n    }\r\n    \r\n    function compareStrings(string memory a, string memory b) public pure returns (bool) \r\n    {\r\n    return (keccak256(abi.encodePacked((a))) == keccak256(abi.encodePacked((b))));\r\n    }\r\n    \r\n    //The bidder can bid for a particular item using its name and the amount he wants to bid\r\n    function make_bid(string item_to_bid, uint amount) public returns (string)\r\n    {\r\n        require(bid_status==status.running);\r\n        for(uint j=1;j<=number_of_bidders;j++)\r\n        {\r\n            if(bidders[j].bidder_address==msg.sender)\r\n            {\r\n                uint idOfBidder=bidders[j].bidder_id;\r\n                for(uint i=0;i<number_of_items;i++)\r\n                {\r\n                    if(compareStrings(items[i].name,item_to_bid))\r\n                    {\r\n                        if(balanceOf(msg.sender)>=amount)\r\n                        {\r\n                            if(amount>items[i].high_bid)\r\n                            {\r\n                                if(items[i].bid_count!=0)\r\n                                {\r\n                                    // If a bid higher than previous bid is placed, the tokens must be reverted back\r\n                                    transferFrom(auctionOwner,items[i].high_bidder,items[i].high_bid);\r\n                                }\r\n                                items[i].high_bidder=msg.sender;\r\n                                items[i].high_bid=amount;\r\n                                items[i].high_bidder_id=idOfBidder;\r\n                                //Every time a high bid is placed, the amount is temporarily transferred from bidder to auction owner account\r\n                                transferFrom(msg.sender,auctionOwner,amount);\r\n                                items[i].bid_count+=1;\r\n                                return \"bid accepted\";\r\n                             }\r\n                            else\r\n                            {\r\n                                return \"Bid is lower than present bid.\";\r\n                            }\r\n                        }\r\n                        else\r\n                        {\r\n                            return \"Invalid bid! Not enough balance to make a bid.\";\r\n                        }\r\n                    }\r\n                }\r\n                return \"Chosen item is not listed.\";\r\n            }\r\n        }\r\n        return \"bidder not registered\";\r\n    }\r\n    \r\n    \r\n    // Bid can be ended only by the auction owner and it marks the end of auctioning process\r\n    function endBid() public isOwner returns (string)\r\n    {\r\n        bid_status=status.ended;\r\n            for(uint i=0;i<number_of_items;i++)\r\n            {\r\n                if(items[i].bid_count!=0)\r\n                {\r\n                //After a certain amount of time, the auctioner ends the auction and awards the item to the highest bidder at that time.\r\n                    transferFrom(auctionOwner,items[i].owner,items[i].high_bid);\r\n                }\r\n            }\r\n        return \"Auction ended, go ahead and reveal winner\";\r\n    }\r\n    \r\n    \r\n    //In order to reveal the winner of the auction, auctin owner needs to use revealWinner after the bidding has ended\r\n    function revealWinner(string required_item) public isOwner hasBidEnded view returns (address) \r\n    {\r\n        for(uint i=0;i<number_of_items;i++)\r\n        {\r\n            if(keccak256(bytes(items[i].name)) == keccak256(bytes(required_item)))\r\n            {\r\n                return items[i].high_bidder;\r\n            }\r\n        }\r\n    }\r\n    \r\n    \r\n    function viewBalance(address tokenOwner) public view returns (uint256 balance) {\r\n        return balances[tokenOwner];\r\n    }\r\n    function totalSupply() public returns (uint) {\r\n        return _totalSupply  - balances[address(0)];\r\n    }\r\n \r\n    function balanceOf(address tokenOwner) public returns (uint balance) {\r\n        return balances[tokenOwner];\r\n    }\r\n \r\n    function transfer(address to, uint tokens) public returns (bool success) {\r\n        balances[msg.sender] = balances[msg.sender]-tokens;\r\n        balances[to] = balances[to]+tokens;\r\n        emit Transfer(msg.sender, to, tokens);\r\n        return true;\r\n    }\r\n \r\n    function approve(address spender, uint tokens) public returns (bool success) {\r\n        allowed[msg.sender][spender] = tokens;\r\n        emit Approval(msg.sender, spender, tokens);\r\n        return true;\r\n    }\r\n \r\n    function transferFrom(address from, address to, uint tokens) public returns (bool success) {\r\n        balances[from] = balances[from]-tokens;\r\n        allowed[from][msg.sender] = allowed[from][msg.sender]-tokens;\r\n        balances[to] = balances[to]+tokens;\r\n        emit Transfer(from, to, tokens);\r\n        return true;\r\n    }\r\n \r\n    function allowance(address tokenOwner, address spender) public returns (uint remaining) {\r\n        return allowed[tokenOwner][spender];\r\n    }\r\n \r\n    function approveAndCall(address spender, uint tokens, bytes data) public returns (bool success) {\r\n        allowed[msg.sender][spender] = tokens;\r\n        emit Approval(msg.sender, spender, tokens);\r\n        ApproveAndCallFallBack(spender).receiveApproval(msg.sender, tokens, this, data);\r\n        return true;\r\n    }\r\n \r\n}",
  "sourcePath": "C:/Users/tejar/Dapp/contracts/auction.sol",
  "compiler": {
    "name": "solc",
    "version": "0.4.24+commit.e67f0147.Emscripten.clang"
  },
  "schemaVersion": "3.0.1",
  "updatedAt": "2021-12-05T20:14:49.007Z",
  "devdoc": {
    "methods": {}
  },
  "userdoc": {
    "methods": {}
  }
}